:020000040800F2
:100000000000012015CE0408B1CE040869C0010823
:10001000C1BE0108B1CE0408B1CE04080000000042
:10002000000000000000000000000000B1CE040845
:10003000B1CE040800000000B1CE040845800108DC
:10004000B1CE0408B1CE0408B1CE0408B1CE040884
:10005000B1CE0408B1CE040895A600089DA60008FC
:10006000A5A60008ADA60008B5A60008A1A4000832
:10007000B5A40008C9A40008DDA40008F1A4000884
:1000800005A5000819A50008B1CE0408B1CE0408E2
:10009000B1CE0408B1CE0408B1CE0408BDA6000854
:1000A00095CF000881CE0008A5CF000871CE0008CA
:1000B000A9CE0008B9CE0008C9CE000835A00008B6
:1000C00029A0000869A000085DA00008B1CE0408BE
:1000D000B1CE0408917F01089D7F0108A97F010826
:1000E000C5A60008B1CE0408B1CE0408B5CF0008FB
:1000F0006DCF0008B1CE04085DCF00082DA5000823
:10010000B1CE0408B1CE0408D9CE0008B1CE04089F
:10011000B57F0108C17F0108E9CE0008A94D040898
:1001200041A5000855A5000869A500087DA500089F
:1001300091A5000800000000000000000000000081
:10014000000000000000000000000000314304082F
:10015000A5A50008B9A50008CDA50008CD7F010818
:100160009DA0000891A00008B1CE0408B1CE0408FB
:10017000B1CE0408B1CE0408000000000000000069
:10018000B1CE0408B1CE0408B1CE0408B1CE040843
:10019000B1CE0408B1CE040800000000B1CE0408BE
:1001A000000000000000000000000000B1CE0408C4
:1001B000B1CE0408B1CE0408000000000000000029
:1001C000000000000000000000000000000000002F
:1001D000000000000000000000000000B1CE040894
:10800000084A0346D0F8E4005268D3F8F010121A78
:1080100000209142B8BFC3F8F020012283F81C2150
:10802000704700BF001000E01B4B1C4A03F5727C38
:10803000016803E063452BD053F82C2F9142F9D10E
:1080400070B593F804E0427996450AD0634505D0AF
:1080500053F82C2F9142F4D06345F9D14FF0FF3003
:1080600070BD9E4684680022DEF80C50A54208D000
:1080700001320EF10C0E032AE8D0DEF80C50A542B6
:10808000F6D1DEF81050C668B542F1D150B270BDDD
:108090004FF0FF30704700BF38E90408000001408E
:1080A0004368426D30B49A61EFF31182502383F339
:1080B00012884168D2B2856C0B68046D23EA05030F
:1080C00023430B6082F31188436981681A68096849
:1080D00022F00102D0E908541A60826A1D605C61D6
:1080E0005A60D0E90B429C60DA600023B0F86C2043
:1080F00030BCCA620377704730B5FAB18E464FEA9A
:10810000014C034600F1C005002419680C3353F8F4
:10811000042C43F8084C41EA0C0142EA0E02AB423F
:1081200043F80C1C43F8042CEFD1D0F8C03043EADC
:108130000E03C0E93144C0F8C03030BD4FEA014EF3
:108140008C46DEE783695969B3F810C00A6830B419
:108150009C6822F0010224680A60E26822EA0C02AC
:10816000E260027D04681F2A06D9203A082065686B
:108170009040284242D0FEE70820256890402842DF
:10818000F9D1202000FA02F2A260254A1278002AD2
:1081900032D01A7F012A36D0D3F800210132C3F839
:1081A0000021EFF31181502282F312885868C9B27E
:1081B0009D6C0268DC6C22EA05022243026081F3B6
:1081C00011885A699968D3E90D40096814605061B3
:1081D000D3E90F40546090605C6CB3F8B400D46095
:1081E0000124C8621068204310601A8A1C7783F843
:1081F000FD40CB681343CB6030BC7047202000FAB1
:1082000002F2E260C1E70022D3F8040183F8FD2006
:1082100001300A68C3F8040122F001020A60EBE7AA
:10822000F801002010B40C4C6368002B11DD002015
:1082300004F1080C0146DCF8AC3003F1C0025960CF
:108240000C339342FBD1013063680CF5867C83428A
:10825000F1DC5DF8044B7047F8010020704700BF67
:10826000024B03EB401090F855047047F8010020D2
:10827000704700BF0B4890F86C1589B101EB4101C4
:10828000002300F27450490010B41C4650F823201B
:10829000063302B114608B42F8D15DF8044B70478D
:1082A000704700BFF80100200B4890F86C1589B1A9
:1082B00001EB4101002300F27450490010B41C4648
:1082C00050F82320063302B114609942F8D15DF8CA
:1082D000044B7047704700BFF80100200120704731
:1082E000034B00EB400003EBC00090F8850570479E
:1082F000F8010020204890F86C35002B3AD000227D
:1083000000F274534FF02C0C2DE9F0434FF0500E57
:108310001A4E1B4D144607E053F8181B01320C602F
:1083200090F86C15914223DD197C0029F4D05F6828
:108330004FF0FE08B90AA1F580115229294498BFCF
:1083400091F8F483EFF311818EF31288D7F824901B
:108350000CFB0868C9B209F10109C8F82890D7F8E0
:10836000148048F00108C7F8148081F31188D3E71E
:10837000BDE8F083704700BFF801002020180120FD
:1083800038E9040807EE900AB8EE670A704700BFA4
:10839000BCEEC00A10EE103A98B270472DE9F041D9
:1083A0000022794B846982B0D3F89462019208224A
:1083B00004F19C07D4E93D839A40D8F80050154257
:1083C00005D0D4F89C100868400700F1B080012265
:1083D0009A40154205D0D4F89C104969080600F16E
:1083E0009D8004229A40154205D0D4F89C1009685B
:1083F000890700F18A8010229A40154204D0D4F8EF
:108400009C10086800076AD420229A40154218D0B0
:10841000D4F89C100868C00613D5C8F8082094F852
:10842000D120052A39D00B6813F4802F0B6800F097
:108430009280190340F19D80D4F8D8300BB13846B2
:108440009847D4F8F030002B46D0D4F8F030DA0753
:108450001BD54E4BD4F89C20A3FB0636052384F88D
:10846000D130B60A136823F00103136002E01368E9
:10847000DB0704D5019B01339E420193F7D2002212
:10848000012384F8D02084F8D130D4F8E8301BB32D
:10849000384602B0BDE8F04118470A6822F01602DB
:1084A0000A604A6922F080024A61D4F8DC20002A7E
:1084B00065D00A6822F008020A603F22002102FA11
:1084C00003F30122C8F80830D4F8EC3084F8D01057
:1084D00084F8D120002BDBD102B0BDE8F081C8F8D0
:1084E00008200A6812F4802F0A682DD1D20503D41F
:1084F0000A6822F008020A60D4F8DC20002A83D03F
:1085000038469047D4F8F8307EE7C8F80820D4F809
:10851000F02042F00402C4F8F0206CE7C8F808200C
:10852000D4F8F02042F00202C4F8F02059E70868BD
:1085300020F004000860C8F80820D4F8F02042F0C9
:108540000102C4F8F02042E71103D5D5D4F8E420A5
:10855000002AD5D158E713F480737FF46DAF0A6811
:1085600022F010020A60012284F8D03084F8D12071
:1085700062E7D4F8E030002B7FF461AF61E7D4F814
:10858000E420002A95D198E720180120B5814E1BE0
:108590000346012200205A77704700BF08B5D0E992
:1085A0000B2183690B4483610AB108469047002080
:1085B00008BD00BF436A02461B681B6A5B685B78A4
:1085C00013F0010008BF5077704700BFC26281619D
:1085D000704700BF704700BF04307047C2628161BE
:1085E000704700BF436A02461B681B6A5B689B7842
:1085F00013F0010008BF5077704700BF0346012207
:1086000000205A77704700BF08B5D0E90B21836975
:108610000B4483610AB108469047002008BD00BFA3
:10862000704700BF043070470C4B93F89C22D3F87E
:10863000981202440844D2B2C3F8980283F89C22EC
:1086400093F89C22120605D593F89C2282F08002B2
:1086500083F89C22024B01221A70704720180120D7
:10866000000001202DE9F84F154FD7F8A052ED0A70
:1086700020D00026DFF84CA007F52979B046AC19C8
:10868000D7F8A412102352466410D1F828B04846F7
:10869000C7F8D082E102D8470F280BDD094B03F160
:1086A000100253F8041B013107D19342F9D125463A
:1086B000B542E4DCE802BDE8F88F661CF8E700BFCD
:1086C0002018012000000020184BD3F8D812D3F84E
:1086D000DC228A1A322A15D8D3F8F0228A4200D333
:1086E0007047D3F8E022E2B110683231928810B4BA
:1086F0004469C3F8F01222425DF8044B18BF12041B
:1087000082617047D3F8E0223AB193F8EC02116825
:10871000C007928848BF12048A610022C3F8F02281
:1087200070473231C3F8F012704700BF20180120A3
:10873000064AD2F8E0323BB192F8EC121A68C90747
:108740009B8848BF1B0493610020704720180120BC
:10875000044B4FF4007C0020D3F80033A2F800C093
:108760000B607047201801200020704701207047DF
:108770000120704700207047134BD0F8D8105B6879
:10878000D0F8E02010B50446581A824200DC22B925
:10879000D4F8E4200A44C4F8DC2094F8D020C4F8CB
:1087A000D830012A05D0D4F8D4300133C4F8D430FD
:1087B00010BD04F1E801201D0EF0A2FED4F8D43063
:1087C0000133C4F8D43010BD001000E0CB070AD448
:1087D00090F82830012B08D0C368B3F1807F03D90B
:1087E000012303777047704770471C4AD2F89432D0
:1087F000D2F830139A08B1EB930F4FF0020310B583
:10880000446A8CB006D252085B0091429BB201D2FE
:10881000FF2BF8D9C268A380B2F1807F1BD9012257
:10882000002301A94FF0B70C0277204604928DF87F
:1088300014208DF828208DF804C00B93CDE9021385
:1088400002A9CDE90633CDE908330EF059FE2268BE
:10885000136A002BFCD10CB010BD00BF2018012002
:1088600030B590F828308BB00446012B05D0407FFE
:1088700048B1002363770BB030BD456A2B681A7B83
:1088800022BB637F13B901200BB030BD1249022017
:10889000002301220290081F8DF80C208DF8202063
:1088A0000993CDE9001069462846CDE90433CDE9A6
:1088B00006330EF025FE2A68136A002BFCD1074B05
:1088C0005B7C03F0010383F00100D3E71B6A002BFC
:1088D000D7D00020CFE700BF140000200000002008
:1088E0002DE9F0411F4F8AB0044690F82820A7F1E7
:1088F0000408A7F11406437F012A06D00BB1002318
:10890000637701200AB0BDE8F081656A2A68117BAF
:1089100009BB002BF5D00023694628460993CDE911
:108920000433CDE9063301238DF80C308DF8203067
:108930000223CDE9007802930EF0E2FD2A68136A63
:10894000002BFCD1737C03F001036377002BD8D09C
:1089500094F82820D0E7126A002AD7D1002BD0D073
:10896000D9E700BF14000020244A002330B5044694
:1089700095B0101D224D0693019002200B93109389
:10898000139311930290207F009200280495CDE963
:108990000E334FF001038DF80C3007938DF8203023
:1089A0008DF834308DF8483002F10803A2F1080246
:1089B000059314BF052304230A920C93114B0993CA
:1089C000636A1A68136A002BFCD1A0B10E480A0E24
:1089D00000F11A0342760A0A9970080C69465A7027
:1089E0001870606A0EF08CFD636A1A68136A002BB7
:1089F000FCD115B030BD054BEDE700BF20000020D5
:108A0000B5850008918500080000002019000020AD
:108A100010B594B0044650220749684645F0A6FDBB
:108A20006946606A0EF06CFD636A1A68136A002B6F
:108A3000FCD114B010BD00BF80ED0408F8B50546A8
:108A4000406A0068046A002CFCD1287F002839D0D5
:108A5000A8690527254E4FEA106C254C2E3606F8DE
:108A600001CC6763B0704FEA104C000A012B86F806
:108A700000C070704FF000000E6826641668A6648F
:108A80002E63A06524D0022B1BD1536801222065E0
:108A90001E444968E365174B84F84C0061652E63FA
:108AA00084F860206366144B697F03F11402686ADE
:108AB000002914BF194611460EF022FDEB6A73B16E
:108AC000286BF8BD04200A4C0C4E6063A869C9E706
:108AD000084A84F84C306065E0652265E3E76B6A1C
:108AE0001A68136A002BFCD1EAE700BF00000020DF
:108AF000000001209D850008040001202D000020B9
:108B000000B583B08161019201A9049A0093012309
:108B1000C2626A46FFF792FF03B05DF804FB00BF34
:108B200070B51D46436A94B006461B681C6A002C4B
:108B3000FCD13B4B02204FF0010C0694029003F154
:108B40003C008DF80CC0009003F1400001903548C6
:108B5000049003F134000590307F00284DD00B9233
:108B60000A0E36338DF8204003F8012C05220C95AF
:108B70008DF834C08DF848C013940792CDE90944AC
:108B8000CDE90E44CDE910440A0C9970264C090A2F
:108B90001A705970D4F89422D4F830339108706A5E
:108BA000B3EB920F4FF0020206D2490852008B42FB
:108BB00092B201D2FF2AF8D9737F8280DBB905A96E
:108BC0000EF09EFC706A03681A6A002AFCD1D4F881
:108BD00094320222D4F834439908B4EB930F06D2AE
:108BE000490852008C4292B201D2FF2AF8D9828001
:108BF000284614B070BD6946E2E70B920422353373
:108C00008DF820000C958DF834C08DF848C0139075
:108C10000792CDE90900CDE90E00CDE91000B3E7D8
:108C200000000020B5850008201801202DE9F84338
:108C30000546406A8C460468236A002BFCD13B4FF2
:108C400097F83833002B3CD0D7F83C63DFF8F4E0DA
:108C5000C6F3022336498EF846608EF84530DCF8BC
:108C60000030DFF8E4C0D2F80090CCF81C310023CB
:108C7000CCF82491CCF82C318B68002B54D00B46C7
:108C8000DC691433002CFBD1D2F80080294C464417
:108C900018605C600123C7F83C6387F83833C6F37B
:108CA0000A03DBB1244BCCF82C316B7F03B91431B0
:108CB000C5F830800EF024FCEB6A6BB3286BBDE87E
:108CC000F883AE69DFF87CE0C6F302231B49C7F8DE
:108CD00040638EF84A608EF84930C0E7D7F84033D9
:108CE0004FEAD328DB0CCCF844818EF84E30234673
:108CF0008EF84F80B9F1000F03D0DC691433002CDB
:108D0000FBD1D2F800800E4A18605A600023C7F8E1
:108D1000406387F83833C8E76B6A1A68136A002B18
:108D2000FCD1286BBDE8F8830B46ADE72018012085
:108D30007C0001201C01012009860008CC000120D4
:108D400048010120000000200000012033B910B5C7
:108D50001C46C36A20469847204610BD66E700BF00
:108D600010B582B00C46019201A9049A8461C262D6
:108D70006A460093FFF75AFF02B010BD0C4AF8B5DF
:108D8000136855692B4003EA000555617DB1094F11
:108D90000126B5FA85F4C4F11F0407EB840306FA33
:108DA00004F4D3F8440303689847A543F1D1F8BD10
:108DB000003C0140201801200269C3682DE9F047FA
:108DC00012EA03092AD005460E464FF000474FF03D
:108DD0000008B9FA89F327FA03F21B3BD24309EAE8
:108DE00002092A61042B16D8DFE803F03B30251A6C
:108DF0000300B36A002B3FD003F1FF3AC6F8288086
:108E00001FFA8AFA746A34B123682046514698479B
:108E10006468002CF8D1B9F1000FDAD1BDE8F08711
:108E200070680028F7D0696B036889B29847B9F178
:108E3000000FCED1F2E7B0680028ECD0A96B036830
:108E400089B29847B9F1000FC3D1E7E7F06800286D
:108E5000E1D0E96B036889B29847B9F1000FB8D146
:108E6000DCE730690028D6D0296C036889B29847BE
:108E7000B9F1000FADD1D1E7E96A1FFA81FAC1E774
:108E80008369F0B593F8DC208BB00546012A27D022
:108E9000023A012A2FD893F84C21EC46D3F89C10C3
:108EA00062F07F03154C0B708669D6F8A0305F1C0A
:108EB0000FCCACE80F00D6F89C30CDE900370FCCD2
:108EC000ACE80F0094E803008CE80300694606F163
:108ED00010000EF015FBAB6919690A6A002AFCD173
:108EE000D3F8A0305A8852BAEA819A8852BA2A82B4
:108EF000DB885BBA6B8201200BB0F0BDD0ED0408BB
:108F0000F0B590F8DC308BB00446D0F8A060012BAF
:108F10004BD015D8D0F89C304FF0FF3205211A60A5
:108F20005A609A60DA60D0F8E030C0F8F010B3F51B
:108F30007A7F54D8032380F8DC3001200BB0F0BDD9
:108F4000023B012BF9D890F84D31EC46D0F89C202B
:108F500063F07F03384D1370D0F8A0305F1C0FCD45
:108F6000ACE80F00D4F89C30CDE900370FCDACE869
:108F70000F0095E803008CE80300694604F1100037
:108F80000EF0BEFA2269136A002BFCD1738801200F
:108F90005BBAA4F8D030B3885BBAA4F8D230F388B7
:108FA0005BBAA4F8D4300BB0F0BD90F84C2190F827
:108FB0004D319B1A5B100133DBB236F8132006EB00
:108FC000430653BAA0F8D03073885BBAA0F8D23009
:108FD000B3885BBAA0F8D43001200BB0F0BD0369B0
:108FE0001A7B2AB35B691BB390F8983003B390F8EF
:108FF0004C310122D0F89C0063F07F03C4F8A440F8
:109000000E49037094F84D3194F84C0184F8002116
:109010001B1A84F8DC20D4F8A0200733C4F804110C
:109020000132D4F89C10C4E93E23C4F8F41084E75C
:10903000022384F8DC3080E7D0ED040801800008CA
:109040002DE9F041304F07EB401898F854340BB934
:10905000BDE8F08100EB80030E460021044607EBDB
:109060004313450193F8362683F8361688F83A24D8
:1090700045F036FCB8BB3D442448A5F8386400EB05
:10908000441045F00DFC3B78D5F85024A3B1D5F839
:109090003C140124D2F8AC308C4003F1C0014200F2
:1090A00010F4004F90B202D15A6822435A600C3338
:1090B0009942F4D1BDE8F081D5F83C140124D2F8EE
:1090C000AC3001F1100203F1C0019440420010F4F1
:1090D000004F90B202D15A6822435A600C33994231
:1090E000F4D1BDE8F0810A4B93F8FC2302EB420275
:1090F00003EBC203234493F8A963002EBBD00123E2
:1091000088F83A34B7E700BFF801002030060020A5
:10911000201801202DE9F84F374D2B7813B9012085
:10912000BDE8F88F354F05F5876A05F6343600241B
:10913000D7F8D8B24FF6FE794FF6FF7815E0B0F5C4
:10914000606F4AD0B081B0EB08012D4B4FF05C004E
:109150005A4618BF012100FB04300DF0E7FF01342F
:109160000AF1200A1436082C31D0D5F81C2FA2425F
:109170002DDDDAF81800DAF80420D0E93D0145F0D9
:109180009BFB484597F8852314D0542A04D1B7F89F
:1091900088230132A7F88823D5F83C2B404502F1FB
:1091A0000102C5F83C2BCAD1D5F8382B0132C5F8DD
:1091B000382BC8E7542AD2D1B7F88A2301340AF1F0
:1091C000200A14360132082CA7F88A23CDD10123B6
:1091D000012085F8383CBDE8F88F97F8FC2302EBB6
:1091E000420207EBC202224492F8A9230D2AA9D118
:1091F0008022B277A7E700BFF801002020180120E5
:10920000340E00202DE9F8430FF072F82F4E4FF086
:10921000000C0746DFF8BC802D4C716800294ADD40
:1092200000234FF486701D4600FB0362013392F861
:109230000521994245EA0205F6D145EA0C0C5FFA90
:109240008CF9D8F80430C3F308038BBBEFF3118318
:1092500073BB4FF0E02CD4F8D832DCF81810D4F8F7
:10926000D8229342F7D1D4F800249142F3D8D4F80D
:1092700004C44FF47A7202FB0CF0401AB0FBFCF00D
:1092800002FB0300C31BB3F5FA6FCCBF4FF0000C19
:1092900005F0010CBCF1000FBFD1B9F1000F04D0F3
:1092A0000B4B93F88523542A08D04846BDE8F88331
:1092B0000EF0EEFEE6E7E1460025C2E7B3F88C23A8
:1092C00048460132A3F88C23BDE8F883F80100205A
:1092D0002018012000ED00E010B5044644F082FBA8
:1092E0000146204689B2BDE81040A9E638B50B4DCD
:1092F00000EB400005F27453C40003EBC0032C44A0
:1093000093ED027AD3ED037AE7EE007AB0EE670AC6
:1093100044F068FBD4F87435186038BDF8010020BB
:109320002DE9F04145F0D4FA80B31B4F7D68002D44
:1093300012DD3846002410F8086BA046013416B13F
:10934000037F012B1DD04269AC4200F58670136883
:1093500043F001031360F1D10EF0CAFFD7F8204F9C
:10936000002C0CDD0D4B03EBC4041968083333F8F3
:10937000042CC8689C4242EA0002CA60F5D1BDE8EC
:10938000F08180F8FC80FEF78BFEDCE73DF0FEFF0D
:109390000028CAD1BDE8F081F80100201C1100208E
:1093A000830AA3F58013522B52D8F0B504466A48BD
:1093B00085B0034493F8F4030D2847D8674D860120
:1093C00005EB8013D3F80C74A7423FD00139C3F8E2
:1093D0000C4489B2C3F81814D5F89412B1FBF2F218
:1093E000013AC3F810240022C3F81C24C3F8142443
:1093F000C3F8202493F8492402F0FF014AB35849E6
:109400000223AF1901EB8011204687F8493404315B
:109410003AF05EFC012387F84934524B9C421BD042
:10942000B4F1804F18D0A3F57C439C4275D003F56E
:1094300080639C4271D04C4A03F57C439C4218BF28
:10944000944249D003F570539C4245D005B0F0BD1D
:10945000704783F84814D2E700234FF48051AA19CB
:10946000CDE9001392F848140129CDE90233EDD07B
:109470000221D2F80C04012482F849143B49876880
:109480003940816082F8494482F848340023AA199F
:10949000CDE90033029392F84834012BD6D0D2F8AC
:1094A0000C3402212F4882F8491483425A68996883
:1094B0004ED000F5806083424AD022F0700221F045
:1094C0008001354401205A609960002385F84904E1
:1094D00085F8483405B0F0BD00214FF48053CDE944
:1094E0000031AB1993F84824012ACDE90211ADD01F
:1094F000D3F80C04022283F849241C4A87683A40B6
:1095000082601B4A83F848140121944283F849146D
:10951000BCD0154B9C4299D1B8E700224FF4805142
:10952000AB19CDE9001293F848140129CDE90222C4
:109530008CD00221D3F80C04012483F849140B4980
:1095400087683940816083F8494483F848249DE75F
:1095500022F47002B1E700BF38E9040820180120A6
:109560002C1C012000000140000C00408800FEFF80
:109570000004014010B590F828300446012B03D0B8
:1095800000230120637710BD406A03681A7B3AB953
:109590003EF028FE00F0010383F001006377F2E75C
:1095A0001B6A002BF4D0002010BD00BF38B5114D50
:1095B000044694F82830012B05D00023637700235C
:1095C0000120236238BD606A03681A7B72B93EF0DD
:1095D00009FE00F0010060770028F0D0D5F8D832FD
:1095E000226A9B1A002BE4DB002038BD1B6A002B8B
:1095F000EDD0F3E72018012010B5FF22044690F8C3
:109600002810406A42F0ACFC0E4B2046D3F8D8320A
:1096100003F5FA732362FFF7C9FF94F82830012B92
:1096200000D010BD0022A021606A42F071FC94F8C5
:109630002830012BF5D1606A1822B021BDE8104016
:1096400042F066BC20180120CB0700D5704710B54A
:109650000446FFF7D1FF94F82830012B00D010BD4D
:109660000A4B0B49D3F89432606AB1EB930F4FEA7F
:1096700093024FF0020306D252085B008A429BB26B
:1096800001D9FF2BF8D9838010BD00BF201801201D
:1096900000E1F50538B504460D46FFF787FF0622C1
:1096A00094F82810606A42F05BFC012294F828309C
:1096B0006277934205D0064BD3F8D8320F3323623A
:1096C00038BDEA0AD821606A42F0FCFBF3E700BF2C
:1096D000201801208388002B47D02DE9F0478CB05B
:1096E00004464FF00009DFF88480062701260DF1BB
:1096F000070509E06677D8F8D83209F10109A28890
:109700000F334A4523622DD92046FFF74FFF94F8C7
:109710002830D4F824A0012B8DF80770EAD100225C
:1097200002A95046029503920B9204938DF81430CF
:109730008DF82830CDE90622CDE908220DF0E0FEB3
:10974000DAF80020136A002BFCD194F828306677F1
:10975000012BD0D14FEA4942D821606AD20A42F0A7
:10976000B1FBC8E70CB0BDE8F087704720180120B6
:1097700070B5104D95F8383303B970BDD5F8406316
:1097800004460D4BF60AC3F84461FFF70FFF94F847
:109790002830012B07D0D5F8D8320022023385F8C3
:1097A0003823236270BD32461021606A42F08AFB82
:1097B000F1E700BF20180120000001202DE9F0474B
:1097C000424F1E4690B00C46D7F8443105469046AD
:1097D000B3EBD12F21D1DFF8F890C4F30A0495F848
:1097E0002830C4F50060B04234BF87B2B7B2012B55
:1097F0003CD0D9F8D832284602332B62FFF7D6FE88
:1098000038B195F82830012B23D0384610B0BDE888
:10981000F087002010B0BDE8F0874FEAD12AFFF7AB
:10982000C5FE0028F5D04FF0FF33C7F8443195F856
:109830002830012B43D0DFF898902846D9F8D83249
:1098400002332B62FFF7B2FE0028E2D0C7F844A132
:10985000C3E7686A3EF0C6FCC0F301100138022875
:10986000D3D82846FFF7C8FE3846CFE78DF8024028
:10987000240A8DF8243000228DF8383003238DF827
:10988000014001A96C6A8DF80030042320468DF850
:10989000032002928DF810200F92CDF804D003938C
:1098A000CDE90522CDE90A22CDE90C22CDE90786D2
:1098B0000DF026FE2268136A002BFCD199E7524670
:1098C0001321686A42F0FEFAB5E700BF00000120EC
:1098D000201801202DE9F843DDF820800F461646B8
:1098E0000021202204461D4644F068FEB8F1000F16
:1098F0000CD0D8F80030B8F80A20E3811B0C238282
:10990000D8F804306282E3821B0C2383384642F08D
:10991000D7FBF30619D4431EB8B107EB000C01E0E6
:10992000013B12D31CF801EDBEF12E0FF8D1C01A85
:1099300003F10109421EB944032AA8BF0322082BE0
:10994000A8BF082390461A4606E008280246B946F2
:109950004FF00008A8BF08224FF0203339462046B8
:109960002360636044F002FE04F108031748424696
:1099700049462081A072184644F0F8FD04F1FF3CEE
:109980000346E21D1CF8011FA1F1610E2039BEF152
:10999000190F98BF8CF800106245F3D1184604F1F6
:1099A0000B0110F8013BA3F16102203B192A98BF7B
:1099B00000F8013C8842F4D1182365832D0CE6722F
:1099C0002373099BA582E361BDE8F8832020200072
:1099D0002DE9F04FDFF88C9487B0D9F8D802C9F898
:1099E000DC02002B00F0DA801344154601F120065A
:1099F00001F5FE77DFF870A403931FE0002D63D01C
:109A0000D9F80C23AA4200F0CD80D9F80823AA4245
:109A100000F00281D9E9C421AA424CD8A94200F23F
:109A2000CF81691A18463DF0CBF90135039B06F545
:109A3000007607F500779D4200F0B080D9F8184312
:109A4000A6F12003AC42D9D82C1BD9F82883E20810
:109A5000D8F8301004F0070402328A4203D3D8F851
:109A600038108A420DD941461046059304923DF0C4
:109A700077F98046DDE90423002800F0C181C9F8A8
:109A8000280398F80410002940F03F81D8F828B046
:109A9000BBF1000F00F0AD811846D8F830304FF41C
:109AA0000071D21AD8F80C3004EBC20203EB422248
:109AB0004346D847B9E7A942B3D918464FF40072D4
:109AC000002144F07BFDB0E74FF4007229461846B0
:109AD00044F074FD80220346D94886F89E210C226A
:109AE00086F8A221D9F80813D9F800238142C3F8D7
:109AF000C611C3F8CA2100F36881D24B013AD24C97
:109B000083FB0103C81784FB01C40B44C0EB631340
:109B1000C0EB2430CD4C84FB03C4C3EB831C86F81C
:109B2000A1018010A1EB0C011C4420F03F00013189
:109B3000014386F8A011D917C1EBE4110B4486F854
:109B40009F31BF4B9A4200F34C81BE4BBE4883FB12
:109B50000213D11780FB02401344C1EB6313C1EB26
:109B60002031BA4880FB0340C3EB831486F8A5116B
:109B70008910121B184421F03F0101320A4386F874
:109B8000A421DA17C2EBE010034486F8A331552371
:109B900086F8DE31AA2386F8DF3146E7002007B0D9
:109BA000BDE8F08F4FF0FF320024A6F11C000493B3
:109BB00083F8EC21214683F8ED2183F8EE2183F828
:109BC000EF2152221A705A7061229A7083F8E721AD
:109BD0004122DA7083F8E621722283F8E42183F8C7
:109BE000E521D9F82023C3F8E8214FF4F07244F0BE
:109BF000E5FC049B5522C6F8D041C6F8D441C6F80E
:109C0000D84183F8FE216FF0550283F8FC4183F8B8
:109C1000FD4183F8FF2108E78D4C00214FF40072CD
:109C2000184644F0CBFC03464FF0000C022203CC54
:109C300046F8191CEB2146F81D0C082006F8201CDC
:109C4000582106F81F1C902106F81E1CF8211A73D3
:109C500083F80BC006F8130C9A7383F80FC006F84C
:109C6000102C06F80B1C83F82C20D9F80813D9F80F
:109C7000002383F819C0521A83F81BC083F81DC053
:109C80001A6283F81EC083F81FC083F82DC083F8C2
:109C90002EC083F82FC0D9E9C412521A80215A620B
:109CA0003F221A764FF0FF329A763E221A7701222F
:109CB00083F8302083F831C086F820102921654BC5
:109CC00086F82210942186F8260086F823100E21AB
:109CD000614A86F824100D2186F82510552186F852
:109CE000DE11AA2186F8DF1103CBC6F82B101988E4
:109CF000C6F827009B78A6F82F1086F8313003CAE3
:109D0000C6F83200C6F836108FE64FF400721846D7
:109D1000002144F053FCD8F840200346002C76D1B3
:109D2000002A00F0A380D8F8303011224B49CDE949
:109D30000044FFF7CFFDD8F840301A6C002A00F03D
:109D4000A1801B6BCDE900441122454930464FF4F8
:109D5000E07BFFF7BFFD06F12003D8F84480B8F19F
:109D6000000F3FF462AE03F120049B4404952346A8
:109D70004446984610E05CF81C1B0025236BCDE997
:109D800000C5FFF7A7FDABEB0803A46C08F12008A2
:109D9000002C18BF1F2B51D92379A44604F11C0EA7
:109DA0001122A8F12000002BE5D162792569236BEF
:109DB00042F021022168CDE900E5FFF78BFDE2E7E3
:109DC000A91A18463CF0FCFF2FE6FF23013A86F85B
:109DD0009F3186F8A13186F8A031194B9A427FF75E
:109DE000B4AEFF2386F8A33186F8A53186F8A431F6
:109DF000CDE6594618464FF4007244F0DFFB14E6F6
:109E0000A6F1240343F804AF9F42FBD10DE6002ADC
:109E1000D8F844800CBF01220222C2EB0414B8F12E
:109E2000000F3FF402AE4246013C926C002C01DD73
:109E3000002AF9D190464FF4007B90E7049DF4E5A9
:109E4000FF03FB0083200882975545418180808075
:109E50000C620508186205082462050804620508FA
:109E60000862050820180120DEADBEEF2346082257
:109E7000D9F804134FF4F07BCDE90044FFF72AFD35
:109E800033466AE72346CDE900445DE738B504462A
:109E900090F8210100B938BD0DF0F4FE21460546C9
:109EA00098B126220C4BC28041F80C3F3DF02EFDAC
:109EB000AB884FF00042B3FA83F332FA03F3EAD0EF
:109EC00006490A6813430B6038BD034B41F80C3F49
:109ED000BDE838403DF01ABD79870008003C0140DC
:109EE00030B490F8443000F10801484A012BC2F820
:109EF000CC176ED083684649DC68464D24F4600474
:109F0000AB42DC60DC6844F46004DC609C6B24F4ED
:109F100040149C639C6B44F480149C639C6B24F4FD
:109F2000F8449C639C6B44F488449C639C6824F4D0
:109F300070249C609C689C609C6824F440149C6025
:109F40009C689C605C6824F480645C605C6824F4B9
:109F500080545C605C6901EA040159615969596186
:109F600047D0DC682A4924F0E064DC60DC6844F017
:109F7000E064DC609C6B24F440149C639C6B44F4B0
:109F800080149C639C6B24F478249C639C6B44F445
:109F900010249C639C6824F470249C609C689C60E2
:109FA0009C6824F440149C609C689C605C6824F469
:109FB00080645C605C6824F480545C609C6921402F
:109FC000144C9961A3429969996118D0002380F8D3
:109FD00044301148114B848DC18D408D091BC2F84E
:109FE000D447C2F8D00793FBF1F330BCC2F8D8379E
:109FF00070470B4C616841F400016160B1E70849AA
:10A000004B6843F400034B60E0E700BF20180120D9
:10A0100000F0FFFF00200140007AF01F80380100AF
:10A0200000230140704700BF014839F007BB00BF63
:10A0300010200120084810B4D0F8F037D0F8244898
:10A0400099691A682CB1234600F5FE605DF8044B4F
:10A0500018475DF8044B704720180120014839F07B
:10A06000EDBA00BF70200120084810B4D0F8503875
:10A07000D0F8844899691A682CB1234600F5056028
:10A080005DF8044B18475DF8044B70472018012019
:10A09000014839F0D3BA00BFD0200120084810B4DD
:10A0A000D0F8B038D0F8E44899691A682CB1234642
:10A0B00000F50B605DF8044B18475DF8044B7047E2
:10A0C0002018012030B40469002341684025E46869
:10A0D00082690C31546244699560536093631160E6
:10A0E000C2E90333C2E90533C2E90733C2E90A33DF
:10A0F000C2E90C3384B1C269E068936350621160B5
:10A10000C2E90133C2E90333C2E90533C2E90733C7
:10A11000C2E90A33C2E90C3330BC7047114A037AF2
:10A120000168D35C10B4CC58CA1824F00104CC5098
:10A130001368DB07FCD4037D1F2B09D9203B2022A9
:10A140005DF8044B02FA03F343F01803CB60704749
:10A1500020225DF8044B02FA03F343F018038B60EE
:10A16000704700BFC0620508F0B50668356A00296F
:10A170005CD12F68AC68D6F818E0002F5FD0364B62
:10A180003B40B3F1005F61D007F01F0104F11F03F2
:10A1900027F01F02194421F01F01BFF34F8F002940
:10A1A0000BDD114402F12003DFF8B0C08B42CCF884
:10A1B00068221A4603F12003F8D1BFF34F8FBFF393
:10A1C0006F8F03684FF48062CEF80470CEF81420CD
:10A1D0005B69CEF8204043B36868F669002837D041
:10A1E0001D4B0340B3F1005F1AD000F01F0220F0B6
:10A1F0001F011F32224422F01F02BFF34F8F002A9B
:10A200000ADD0A4401F12003144D9A42C5F8701288
:10A21000194603F12003F8D1BFF34F8FBFF36F8FBF
:10A220004FF48063706073613462F0BDEC69002CA0
:10A23000FBD06F691435D6F818E0002F9FD1084A7B
:10A240003346CEF81470CEF80420C1E73346B9E7A0
:10A25000044B70617360E7E70000FFFF00ED00E072
:10A260005000002054000020F8B507680646D7E9E2
:10A270000454002C50D0A0612B7D1F2B39D82022F4
:10A28000286802FA03F343F018038360237D1F2B31
:10A290003AD92022203B02FA03F3226843F0180344
:10A2A000D3606368002269680A601A601A6842F025
:10A2B00010021A60BA69297A3FF032FBFA69217AF2
:10A2C00020683FF02DFB2A7A2A492F6833688D5C7D
:10A2D0005A687B59206843F001037B51237AC95C9B
:10A2E000435843F001034350536843F00303536062
:10A2F000F8BD203B2022286802FA03F343F018033C
:10A30000C360237D1F2BC4D8202202FA03F32268E6
:10A3100043F018039360C4E72A7D6B681F2AA86185
:10A320001FD82021286801FA02F242F01802826048
:10A330000021BA691960196841F010011960297A81
:10A340003FF0EEFA2A7A0B4933682868895C5A682C
:10A35000435843F001034350536843F002035360F2
:10A36000F8BD203A2021286801FA02F242F01802D2
:10A37000C260DDE7C062050810B1036882889A6197
:10A38000704700BF18B1838802681B04936170474F
:10A3900008B51D200DF076FC08B183794BB11E2065
:10A3A0000DF070FC08B1837903B108BD5523C3805B
:10A3B00008BD5523C380F2E7D3B2012B23D802EBAB
:10A3C00042024FF0000C70B54FEA820E0F4C63460C
:10A3D00022460EF1080504E00133172B11D012F8C4
:10A3E0001CCF6045F8D192F801C08C45F4D1565984
:10A3F000002EF1D0C3EBC3030EEB83030433E0184C
:10A4000070BD002070BD0020704700BF78EE0408CA
:10A4100010B40C4C002304F65C1C01E0152B0CD08E
:10A4200003EB430201331CF802108142F6D12244AF
:10A430005DF8044B92F95E0970474FF0FF305DF80C
:10A44000044B704720180120D3B2022B21D802EB15
:10A450004202002330B54FEA820C0F4D0F4C2A46C2
:10A460000CF10C0E04E00133172B10D052F82C4FD6
:10A47000A042F8D114798C42F5D152F80E40002C4C
:10A48000F1D02C2202FB03C30833E81830BD0020B2
:10A4900030BD0020704700BF38E9040800000140CB
:10A4A0000348D0F8AC3113B100F5CE7018477047AF
:10A4B000000001200348D0F8D03113B100F5E0705E
:10A4C00018477047000001200348D0F8F43113B159
:10A4D00000F5F27018477047000001200348D0F8DB
:10A4E000183213B100F502701847704700000120C0
:10A4F0000348D0F83C3213B100F50B701847704791
:10A50000000001200348D0F8603213B100F5147048
:10A5100018477047000001200348D0F8843213B177
:10A5200000F51D7018477047000001200348D0F85F
:10A53000A83213B100F526701847704700000120BB
:10A540000348D0F8CC3213B100F52F70184770478C
:10A55000000001200348D0F8F03213B100F5387044
:10A5600018477047000001200348D0F8143313B196
:10A5700000F5417018477047000001200348D0F8EB
:10A58000383313B100F54A701847704700000120B6
:10A590000348D0F85C3313B100F553701847704787
:10A5A000000001200348D0F8803313B100F55C703F
:10A5B00018477047000001200348D0F8A43313B1B6
:10A5C00000F5657018477047000001200348D0F877
:10A5D000C83313B100F56E701847704700000120B2
:10A5E0000138074B074A00EBC00003EB8000D0F8AE
:10A5F0009C0190420CBF952096203DF0D9B900BF38
:10A60000000001200060024001382DE9E84100EB24
:10A61000C000134D1E46134B05EB800590460F46B8
:10A62000D5F89C0198420CBF952096203DF0C0F9CA
:10A6300095F9B1014FEA9811C5F8AC71C5F8B4614C
:10A640003DF034F995F9B131002B07DB03F01F0021
:10A6500001225B090449824041F82320BDE8E881DA
:10A66000000001200060024000E100E0800AA0F547
:10A670008010522808D8054B184490F8F4330D2B5D
:10A6800002D8034AD05670470020704738E90408C2
:10A69000B06205080120FEF771BB00BF0220FEF783
:10A6A0006DBB00BF0420FEF769BB00BF0820FEF7AA
:10A6B00065BB00BF1020FEF761BB00BF4FF4787090
:10A6C000FEF75CBB4FF47C40FEF758BB30B103682B
:10A6D00082881B691A4214BF01200020704700BF06
:10A6E0002DE9F04F884683B004461746002800F055
:10A6F000BC8002685E4B13449B0A5E4AC8F3411B50
:10A70000134493F8C4073DF053F9C8F38103B4F838
:10A7100004E008F00302256801939EFAAEF0B0FA57
:10A7200080F002F1FF3A3EFA00F35ED001260321E9
:10A7300003E001303EFA00F357D006FA00F313EAC3
:10A740000E03F6D0D5F8009093FAA3F4B4FA84F48B
:10A7500093FAA3FCBCFA8CFC6400BAF1010F4FEA37
:10A760004C0C01FA04F402FA0CFC29EA040444EA51
:10A770000C042C6049D9D5F80C9093FAA3F4B4FAE0
:10A7800084F493FAA3FCBCFA8CFC6400022A4FEA1E
:10A790004C0C01FA04F40BFA0CFC29EA040444EA18
:10A7A0000C04EC60C5D193FAA3FCBCFA8CFC1C0A27
:10A7B000BCF1070F41DC2C6A93FAA3FCBCFA8CFCB9
:10A7C00093FAA3F34FF00F09B3FA83F34FEA8C0C1B
:10A7D00001309B0009FA0CFC07FA03F324EA0C048D
:10A7E00023432B623EFA00F3A7D1BAF1010F09D837
:10A7F0006B68C8F3001823EA0E030EFB08FE4EEA4E
:10A8000003036B6003B0BDE8F08FD5F8089093FAAE
:10A81000A3F4B4FA84F493FAA3FC6400BCFA8CFCAD
:10A8200001FA04F44FEA4C0C29EA0409019C04FAE9
:10A830000CFC49EA0C04AC609DE7D5F824C094FAFE
:10A84000A4F9B9FA89F994FAA4F30F24B3FA83F3BB
:10A850004FEA89099B0004FA09F907FA03F32CEA85
:10A86000090C4CEA03036B6263E74FF0FF3344E7E4
:10A870000000FEBF38E9040800B131E770472DE958
:10A88000F84FC04F6023064603FB0073D3F8DC4744
:10A89000002C00F06B81D3F8E4A7BAF1000F04D0CC
:10A8A0009AF80630002B40F06181602303FB0673A9
:10A8B000D3F8E8571DB1AB79002B40F05781731CDA
:10A8C000DBB2BAF1000F04D015228AF807308AF8FB
:10A8D000062015B11622EB71AA714FF06009207C99
:10A8E0003DF066F8294609FB06F9504640F0ECFFBA
:10A8F000042207EB0908504698F8EC37002B14BFE8
:10A900003E211E21FFF7B8FF98F8EC3728469E4DF0
:10A91000002B4FF004024D4414BF3E211E21FFF7CF
:10A92000ABFF4C220021284643F048FED8F8DC3724
:10A930009FED967AB0EE084A5B68F7EE003AB8F8F9
:10A94000EE974FF0000EC8F8F03740F21458904BD5
:10A950009FED905A9A68904BC2F38222134493F869
:10A96000CC27D7F89432D34007EE903AF8EE677AC6
:10A97000C7EE275A07EE909A9FED887AF8EEE77AAD
:10A98000C7EE274ADFED867AB0EE007AE5EE877AE9
:10A99000A5EE875A25EE844A37EE856A74EEE72ADB
:10A9A000B9F5C87F0EF1010CD5BF642332234FF4F3
:10A9B0009670782007EE90CAD8BF4FF4167A0344F9
:10A9C000C8BF4FF4827AB8EEE77AD8BF414607EEA7
:10A9D000903AC8BF4FF4FA7127EE257A01EB0A03CB
:10A9E000F8EEE76A86EE873A73EE636AFCEEE67A83
:10A9F00017EE902A07EE90AAB8EEE73A07EE903AE3
:10AA0000F8EEE77A23EE243AC3EE276A36EEC53A2B
:10AA100072EEE66AC3EE077A77EEE37AFCEEE77A47
:10AA200017EE901AC6EE877A77EEE37AFCEEE77AB5
:10AA300017EE903A03F1020A0AEB010BF0EE466AB8
:10AA400007EE90BAF8EE677AE7EE276AF4EEE64A88
:10AA5000F1EE10FA00F38E805FFA82FABAF10F0F6E
:10AA600000F28A80323807EE900AF8EEE77A77EE45
:10AA7000C47AC7EE876AFCEEE67A17EE900A5FFAB0
:10AA800080FABAF10F0F77D81FFA81FABAF1FF0FE7
:10AA900072D81FFA83FABAF1FF0F6DD812054AEA8D
:10AAA0000E7302F07F620004134300F47F003D4AFE
:10AAB000034302EA01210B43602000FB06760027D6
:10AAC0002846C6F8F4370123C6F8F877C6F8FC37ED
:10AAD000C6F80078C6F80478C6F80C78C6F810787E
:10AAE00040F044FA96F83138202BD9B21AD196F8B2
:10AAF0003038012B16D0242386F83138D6F8F037B9
:10AB00001A6822F001021A601A6822F480521A6050
:10AB10001A681A601A6842F001021A6086F8311841
:10AB200086F83078002194F912003CF0BFFE94F9C9
:10AB30001230A27C002B07DB02F01F0101225B090F
:10AB40008A40194941F82320002194F911003CF072
:10AB5000ADFE94F91130627C002B07DB02F01F017F
:10AB600001225B098A40104941F82320BDE8F88F93
:10AB7000E64615E701315FE7BCF10F0FF8D100237E
:10AB80009AE700BF2018012010200120286B6E4E8C
:10AB9000003802400000164338E9040800247449D4
:10ABA0000000704200FFFF0000E100E02DE9F047E7
:10ABB000814DC0EB001605EBC606D6F89C39002B7C
:10ABC00000F0B8800446070196F80C0A3CF0F0FE4D
:10ABD00096F80C3A012203F01F015B09013B8A4001
:10ABE000032B0AD8DFE813F0DC000400E200D600F3
:10ABF00072494B6A23EA02024A623B1B04F10109D3
:10AC000005EBC3035FFA89F993F8A0090DF03AF850
:10AC1000064618B1122380F8079083713B1B05EBA1
:10AC2000C30393F8A1090DF02DF8824618B1132340
:10AC300080F8079083713B1B05EBC30393F8A209CF
:10AC40000DF020F8804618B1142380F80790837126
:10AC50003C1B50462E2105EBC40595F8A429FFF7AF
:10AC60000BFE95F8A5290E214046FFF705FE95F845
:10AC7000A3292E213046FFF7FFFDD5F89C39504916
:10AC80001A688B4222F040021A6055D04D4A934216
:10AC900069D002F58062934258D1484A116A41F462
:10ACA00000411162116A21F4004111625A6842F4B4
:10ACB00080525A601A68520634D443491E68D1F84B
:10ACC000F043D1F8FC03D1E9F725B0F5005F42EA83
:10ACD0000502D1F8E85342EA0502D1F8EC5342EA02
:10ACE0000502D1F8F45342EA040242EA0502D1F81F
:10ACF000F85342EA0502354D42EA000205EA06052C
:10AD000042EA05021A60D1F8E4235D6842EA14427F
:10AD10002F4C04EA050442EA04025A6002D1B1F859
:10AD200000241A61DA6922F40062DA611A6842F0DA
:10AD300040021A60BDE8F087204A516A41F4805110
:10AD40005162516A21F480515162AFE7214A934226
:10AD500013D11A4A516A41F400515162516A21F4E7
:10AD600000515162A2E7154A116A41F48041116213
:10AD7000116A21F48041116298E7174A934295D1F4
:10AD80000E4A516A41F480115162516A21F48011D6
:10AD900051628BE709490B6923EA02020A612CE739
:10ADA00006494B6923EA02024A6126E703490B6A16
:10ADB00023EA02020A6220E720180120003802403C
:10ADC0000030014000380040000001204000FFFF3B
:10ADD000FBF0FFFF003401400050014008B10022A9
:10ADE0007EE470472DE9F041CB781BB90026304650
:10ADF000BDE8F08100F110070C4605468978384619
:10AE00000CF002FA06460028F0D0E0780CF03AFF89
:10AE1000A86123780133DBB210B1C371222383719F
:10AE20000D21FFF7DBFFA869FFF7A6FA0F4AD2F85A
:10AE3000D832632BFBD90E480CF0D2F9DFF83880FA
:10AE40000C4BA88202E058F8043B53B138469847AF
:10AE500003460028F7D0286985F8D83040F0FEFD79
:10AE6000C5E7E0781E460CF06BFFC0E72018012014
:10AE700040420F00090E040810F1040870B50E4C92
:10AE8000D4F81C6F002E15DD04F58764002503E05F
:10AE9000B54204F120040DD0237F0135002BF7D0FB
:10AEA000E06800220028F3D0217D2034FFF718FC51
:10AEB000B542F1D1012070BDF8010020AB4B2DE966
:10AEC000F04F91B093F88E8BA94B0025A94F0093BA
:10AED000A94BA3F6C40ADFF8B892DFF8B8B24E4621
:10AEE000B30AA3F58013522B55D8534493F8F43387
:10AEF0000D2B50D8B8F1010FFC5640F01E81012CEB
:10AF00003FD14FF000094946204610F05FFE10F097
:10AF1000E5FE90F800C0BCF1000F18BFBCF1540F63
:10AF200014BF4FF0010C4FF0000C40F0028109F10A
:10AF300004091FFA89F9B9F1100FE4D1002D00F0CE
:10AF4000BA808B4A00210DE0534493F8F4330D2B63
:10AF50000FD8FB56A3420FD0013102F58672A942E9
:10AF600080F2A580906803689B0AA3F58013522B9A
:10AF7000EAD90023A342EFD143799BF80500984218
:10AF8000EAD17D4B5B4513D05BF81C6FB30AA3F588
:10AF90008013522BA9D9B8F1010FF2D0012300245C
:10AFA000B8F1020FADD1002BABD0734B5B45EBD1A9
:10AFB000009B013503F58673042D00938BD1DFF8D8
:10AFC000D8814FF0000B08F59E77A8F5876ADAF86C
:10AFD0001C3F5B4568DDD8F80C60002E64D098F803
:10AFE0001030B088D6F80090DAF804506349019325
:10AFF000B0FA80F34944002D0293C3F11F034FEAD6
:10B000009121009340F3CD80594B002405E0013499
:10B0100003F58673AC4200F0C1801A688A42F6D10B
:10B020004FF48673524A03FB0424009A0BF1010B80
:10B03000019B5100C8F8042088F810300323C8F899
:10B040000C6003FA01F5C8F81840B371012386F8C3
:10B0500007B01646A26C03FA01F12A43A264226DDE
:10B060000A4322659AF80020002A6BD003FA06F101
:10B070001A46636D0B4389B26365C9F81800D4F8AA
:10B08000AC00FDF739F8204608F12008FDF708F874
:10B090000123BBF1080F07F1180708F8043C08F872
:10B0A000033C07F8073C92D111B0BDE8F08FBCF12A
:10B0B000000F7FF466AF5846FCF7B6FF9BF80540DB
:10B0C000C3B2022B00F24C83431C2D4A5BB203EB4C
:10B0D000430398002B4B03F5727104E0994200F092
:10B0E0003F8353F82C2FB242F8D11A79A242F5D1FE
:10B0F0001A58002AF2D094460023234A516801339B
:10B10000614513D0102B02F12402F7D14FF0FF3329
:10B1100003EBC3031D4A02EB830393F8B831002B02
:10B120007FF42FAF009BC3F808B041E7DBB2013BCF
:10B13000EEE7002D7FF405AF23E7B4F1080318BF55
:10B1400001232DE702990004C1F12F05009903FAAC
:10B1500001F1AB40656D89B22B436365C9F81800F6
:10B16000D4F8AC00FCF7C8FF8DE700BF2018012021
:10B1700000020020B0620508FCF104080000FEBFD8
:10B180000000014038E904089C0101200000012072
:10B19000000401401CF1040830060020032C00F3D9
:10B1A00099824FF4867303FB05A31869002800F009
:10B1B000C18299600131CAB283F8112104925422EC
:10B1C00083F810216B1C0268CAF80430447903929A
:10B1D000FCF72AFFA04B864693F8A53B0593C3B224
:10B1E000022B00F2BD8200F1010C9C499C48002317
:10B1F0004FFA8CFC039A0CEB4C0C4FEA8C0C05E0DC
:10B200000133172B00F0AC8251F82C0F9042F7D18C
:10B210000879A042F4D151F80C000028F0D02C217C
:10B220000EEB4E0E002401FB03F303EB8E0E8B4B53
:10B23000734419694FF4867303FB05A3C3E907013F
:10B24000884B9C46DCF80410884217D001340CF17E
:10B25000240C102CF6D1844B93F89421002A00F092
:10B260006282824B82488349834AC3F84804C3F808
:10B270004014C3F8502411B0BDE8F08F611C7A4827
:10B28000C9B2013901EBC10100EB810191F8B801AC
:10B2900006900028E5D104984FF08C0C81F8B90194
:10B2A0004FF4867000FB05F42046542481F8B84121
:10B2B0000446811071480394544400FB01F1C4F822
:10B2C00000C101FB0CF001EB4101C4F80C9001EB53
:10B2D000011C6B4901EB4000A1F54C7101EB8C01A5
:10B2E000C4F8FC00C4F8B4103321C4F8B8106549A0
:10B2F000039C0C195849D1F894920599062900F03D
:10B300000E82072960486149DFF888E10CBF844656
:10B310008C465F4908BF714610460593039BB9FBF5
:10B32000F1F1B9FBFCFC4A1E4FF486790CF1FF31B8
:10B3300092B209FB05A9A9F8BC1003F15801A9F8BC
:10B340007420504B226600221944A4F858206266EB
:10B35000E2653EF061FAD9F810301868049302688B
:10B3600042F0800202605A79059B0C2A08D8DFE877
:10B3700002F06B070707640707075C07070754001D
:10B380004FF4867202FB05A251694FF0600C02680F
:10B390004FF000094FF0020ECDF820C04FF4807C32
:10B3A00022F00102CDF82890CDF838C04FF0010C02
:10B3B000CDF83490CDF824C04FF00A0CCDF83C9075
:10B3C0000593CDE90BCE026008AA3EF0E3F84FF4F6
:10B3D0008672049B02FB05A219685269059B012A2B
:10B3E0005AD0042A58D0102A00F0A981402A53D0FC
:10B3F000B2F5807F00F0A681B2F5806F00F0A281E7
:10B40000B2F5805F00F0A481B2F5803F4FF03C09B7
:10B410000CBF08224FF400623FE04FF486724FF4F5
:10B42000805102FB05A25161AFE74FF486724FF4E1
:10B43000807102FB05A25161A7E74FF486721021CB
:10B4400002FB05A25161A0E74FF48672012102FBC5
:10B4500005A2516199E700BF2018012038E90408CE
:10B46000000001409C01012000000120F01200209A
:10B47000A95E0108A55E0108B15E01086B4CA40736
:10B48000801A002000020020105522004495080078
:10B49000D0DD060040771B00082201F1180050F8AB
:10B4A00009C042EA0C0240F80920049A10790028E9
:10B4B00040F01C814FF48671002201FB05A1D1F8F8
:10B4C00010C0C869DCF800C0DCF8001041F00101D0
:10B4D000CCF8001059680132884200F00381102A2C
:10B4E00003F12403F6D14FF0FF339F4A03EBC3036C
:10B4F00002EB8303D3F89C019C4B98420CBF952030
:10B5000096203CF055FA4FF4867303FB05A31A69A5
:10B5100053790C2B00F2E380954901EB4303B3F818
:10B52000E0C84FF486731068924903FB05A3A3F8A3
:10B5300018C0002306E0904200F008810133042B7C
:10B5400000F00B8151F83320002AF4D1DAF8202FD3
:10B550000132CAF8202F0AEBC302DB00C2F8240F25
:10B560001944069823469022B1F804E0DFF81892B7
:10B570004CEA0E0CA1F804C07F49FFF745F84FF4E0
:10B5800086734FF4403C402103FB05A50023E86986
:10B59000026842F010020260026842F01402026087
:10B5A000C4F8A830C4E91F33C4E9283304232A6A45
:10B5B000C4F898C04FF4804CC4F89C304FF48063BA
:10B5C000A167C4F88430C4F89420D5F8B820C4F832
:10B5D0009020C2B220F0FF00103AA9FB0231EA68C5
:10B5E000039B1832090922674FF48052C4F888205F
:10B5F00003F17002614B1A44D5F8B430C4F88CC022
:10B6000063673EF08DF9E869039B4FF40031D0F891
:10B6100000E04FF4006C03F1B802584BC4F820E08E
:10B62000D0F814E01A440023C4F824E0D0F804E071
:10B63000C4F828E0D0F808E0C4F82CE0D0F80CE01A
:10B64000C4F8C830C4F830E0C4F8F030C4E930338E
:10B65000C4E93A332B6A03930423C4F8E4304FF46B
:10B660008063C4F8CC30039BC4E93731D5F800318E
:10B67000C4F8D830C3B220F0FF00103BA9FB03315F
:10B68000EB68C4F8D0C010330909C4F8B830D5F855
:10B69000FC3003934FF48043C4F8D430039BC4F8C8
:10B6A000BC303EF03DF9EB69B0881A68D6F80090DE
:10B6B00062635A69A2635A68E2639A682264DA682C
:10B6C00062641A6842F010021A601A6842F01402AA
:10B6D0001A60AAE403232A4A82F8A43BC1E54FF08A
:10B6E000000C1EE7D3B20693013BFEE607930591DB
:10B6F0000CF0C8FA05998146079B58B105930221C1
:10B70000049BDA79FEF7ECFF049B5422A9F806208B
:10B710001968059B4A6C42F400424A64CAE6DFF8A5
:10B720006CC01849F8E50499542283F8951183F800
:10B73000942196E50223124A82F8A43B91E54FF446
:10B740000062AAE608224FF00409A6E6DB0007E73C
:10B750004FF400624FF004099FE600239B88FFDE50
:10B7600000235B68FFDE00BF000001200060024094
:10B7700038E904081C11002045810008000200205F
:10B7800020180120A0BB0D00ABAAAAAA882A11008C
:10B79000F8B590F8B2311C09013C052C0FD81B4EAE
:10B7A000054603F00F0306EB4402B2F8FC0840FA2A
:10B7B00003F2D20703D595F8BD71012F01D0012006
:10B7C000F8BD07FA03F33444013B184041F0A4F9F3
:10B7D00094F8082913180E4A02EBC30152F83320DB
:10B7E0008B8810691840EBD0002395F8B3210846E8
:10B7F000022185F8BD31FEF773FFD5F820213846C8
:10B80000136843F008031360F8BD00BF38E904086B
:10B81000C8230120014B53F82000704750280040F6
:10B82000014B43F820107047502800401D4B1E4824
:10B83000196C1E4A41F0805130B4196482B0196C01
:10B84000FF2401F0805101910199016841F4807158
:10B850000160CA20196C41F480611964196C01F40B
:10B86000806100915321009D5462506251625B6F70
:10B87000DB000DD40E4B00210E4A43F8041B93420B
:10B88000FBD10D4B0D4AC3F8502802B030BC7047B5
:10B89000094A0A4BD2F850289A42EBD102B030BC88
:10B8A000704700BF00380240007000400028004090
:10B8B000542800406C28004000200040316665425A
:10B8C0002DE9F04F0646086883B0850ABDF8304080
:10B8D000A5F580159DF8349001940C46522D59D849
:10B8E000DFF82883454495F8F4530D2D52D81946B6
:10B8F000FDF756FD21686279B9F1000F4DD18B0A31
:10B9000094F806B0A3F58013DC46522B4ED9BC4BFD
:10B910001CF0020F00F0CD8002F01F0703EB851230
:10B92000AD01D2F80C040422BA40076A27EA0207E4
:10B930000762076A3A430262426C42F40042426480
:10B94000B04A87683A40062A06D0B2F5803F03D055
:10B95000026842F0010202605A19022082F849048A
:10B96000D2F80C04A74A87683A40062A06D0B2F5F6
:10B97000803F03D0026842F0010202602B440122A2
:10B9800083F8492401F13402637971600021D018F1
:10B990003060D15003B0BDE8F08F8B0A94F806C038
:10B9A000A3F580138CF0010B522BB0D8434493F8CD
:10B9B000F483934BB8F10D0FAAD84FEA4B0003EB79
:10B9C000881E4FEACB0B00F002000BF0080A4FEA8A
:10B9D000881B9EF84884B8F1010F99D04FF00108F8
:10B9E0008EF848844FF002088EF84984142A53D800
:10B9F000DFE812F08C015200520052005101520057
:10BA0000520052001401520052005200C70052006E
:10BA1000520052008900520052005200150003EB00
:10BA20000B0EDFF8EC81DFF8E0A1DEF80CE4DEF8C5
:10BA30002090D64529F48019CEF82090DEF8209089
:10BA400029F4001949EA0050DEF80490DEF8547039
:10BA500007EA080848F4C04800F096810AF5806AB1
:10BA6000D64500F09181019FCEF80490CEF8548025
:10BA7000CEF85C70CEF82000DEF8540040F4006090
:10BA8000CEF85400DEF8540020F48060CEF8540064
:10BA9000DEF85400CEF8540003EB0B0001271CF035
:10BAA000020F80F849744FF0000780F848747FF463
:10BAB00033AF03EB8510012702F01F02AD01D0F870
:10BAC0000C0407FA02F2076A27EA02070762076A0C
:10BAD0003A4302624C4A90420AD002F58062904298
:10BAE00006D08768474A3A40062A7FF42EAF33E7EC
:10BAF000426C42F400424264424A87683A40062A55
:10BB00007FF423AF28E703EB0B0EDFF80881DFF8A3
:10BB1000F8A0DEF80CE4DEF82090D64529F4803950
:10BB2000CEF82090DEF8209029F4003949EA004050
:10BB3000DEF80490DEF8547007EA080848F0600860
:10BB400000F01F810AF5806AD64500F01A81019F36
:10BB5000CEF80490CEF85480CEF85870CEF820007D
:10BB6000DEF8540040F00800CEF85400DEF854002F
:10BB700020F00400CEF85400DEF85400CEF8540053
:10BB80008AE703EB0B0EDFF89080DFF87CA0DEF88D
:10BB90000CE4DEF82090D64529F48059CEF82090A8
:10BBA000DEF8209029F4005949EA0030DEF80490CC
:10BBB000DEF81C7007EA080848F4C04800F0F0807E
:10BBC0000AF5806AD64500F0EB80019FCEF804901C
:10BBD000CEF81C80CEF84070CEF82000DEF81C00B5
:10BBE00040F40060CEF81C00DEF81C0020F48060F9
:10BBF000CEF81C00DEF81C00CEF81C004CE700BF9D
:10BC000020180120070001000000014038E9040865
:10BC1000FF8FFFFE8FFFFEFFFF8CFFFE03EB0B0E7F
:10BC2000DFF8AC81DEF80CE4DEF8209029F48079AE
:10BC3000CEF82090DEF8209029F4007949EA00201F
:10BC4000DEF80490DEF81C7007EA08085F4FBE4576
:10BC500048F0600800F09B8007F58067BE4500F063
:10BC60009680019FCEF80490CEF81C80CEF83C70F0
:10BC7000CEF82000DEF81C0040F00800CEF81C00D2
:10BC8000DEF81C0020F00400CEF81C00DEF81C00DA
:10BC9000CEF81C0000E703EB0B0EDFF83881DEF86E
:10BCA0000CE4DEF8209029F01009CEF82090DEF8A0
:10BCB000209029F0200949EA0010DEF80490DEF80F
:10BCC000187007EA0808414FBE4548F4C04873D0D1
:10BCD00007F58067BE456FD0019FCEF80490CEF87F
:10BCE0001880CEF83870CEF82000DEF8180040F446
:10BCF0000060CEF81800DEF8180020F48060CEF85E
:10BD00001800DEF81800CEF81800C5E603EB0B0E9D
:10BD1000DFF8BC80DEF80CE4DEF8209029F00109A1
:10BD2000CEF82090DEF8209029F0020940EA0900C0
:10BD3000DEF80490DEF8187007EA0808234FBE45C5
:10BD400048F060082FD007F58067BE452BD0019FD3
:10BD5000CEF80490CEF81880CEF83470CEF82000DB
:10BD6000DEF8180040F00800CEF81800DEF81800E1
:10BD700020F00400CEF81800DEF81800CEF8180005
:10BD80008AE649F48039E2E649F480296BE620F43A
:10BD9000006049F4405940EA0A2020F4806060E7DE
:10BDA00049F4804911E720F0080049F440794AEA53
:10BDB000000020F00400CAE720F0800049F4406948
:10BDC00040EA0A1020F0400086E700BF0000014072
:10BDD0008CFFFEFFFF8CFFFEF0B50446D0F8940008
:10BDE000434B83B0A16804F1640204F118070E68A4
:10BDF000C1B220F0FF0001921039A3FB0131090903
:10BE00003DF0D8FD616D0023019A012984F8583076
:10BE100018D0042916D0102955D0402912D0B1F5D8
:10BE2000807F53D0B1F5806F50D0B1F5805F55D091
:10BE3000B1F5803F4FF03C030CBF6FF0080C6FF47E
:10BE4000006C01E06FF0080C06F118053046E95867
:10BE500001EA0C01E950616D3DF09CFB636D012B23
:10BE600016D0042B14D0102B0FD0402B10D0B3F5CC
:10BE7000807F2FD0B3F5806F2CD0B3F5805F31D0A9
:10BE8000B3F5803F06F1540502D04FF4006100E0A5
:10BE900008212B683A46D4F894000B4340212B60CC
:10BEA0002162C1B2124B20F0FF001039A3FB013117
:10BEB00009093DF035FDD4F89420136843F01003D0
:10BEC000136003B0F0BD6FF4006CBDE76FF0080CB9
:10BED0000423B9E706F11C050821DAE76FF4006CCA
:10BEE0000423B1E706F11C054FF40061D1E700BF60
:10BEF000ABAAAAAA2DE9F04FDFF85CB29BF800408C
:10BF00002DED028B87B034B90124204607B0BDEC7B
:10BF1000028BBDE8F08F8B4BDFF840A2D3F8D8320C
:10BF200008EE103A0CF0E4F99AF8243C0390002B48
:10BF300000F001810BF234670BF634330BF63C440E
:10BF400000263D4601930597DAF81C34039AD31A6C
:10BF500003D4EA6D9A4200F3D08006EB86030BEB24
:10BF6000431393F88C3603F0FF020292002B00F08B
:10BF70008D80D5F89410AB6873481A68CBB221F065
:10BF8000FF01103BA0FB030370481B09C35C19446D
:10BF90004B68A9891FFA83FCD368CCF1160C23EAFD
:10BFA0000103BCF1070FD36070D9DBF83C3B0022E2
:10BFB0000121013396468946CBF83C3BD5F89C30AD
:10BFC0001F46049357F8048B40461CE0D7F80080C6
:10BFD000BEF1140FA8EB000340461CDC13F1080867
:10BFE00048BF03F117084FEA28130EEB281E03F190
:10BFF000FF38013102FA03F3043709FA08F28C45DD
:10C0000042EA030207D38C45E0D8CEF11503386825
:10C010004FF0150EEBE7BEF1150F65D14C49C2F399
:10C020008423C2F3441001EB830301EB8000D3F8B7
:10C030001039D0F810091B0243EA001302F01F0068
:10C04000C2F3C43201EB800001EB8202D0F8101978
:10C05000D2F810290B4343EA023383EA132282EA1F
:10C06000121202F00F020F2A3ED1C3F30F134FF644
:10C07000FF72934238D0B3F5606F45D0019A938137
:10C08000029918EE102A20460BF050F8019B284622
:10C0900001365C341433A0350193FFF79DFE9AF806
:10C0A000243CB3423FF750AF0122059F8BF8382C58
:10C0B0000022CAF81C24002B3FF426AF03EB8303B5
:10C0C00007EB43133A7CA03757F84C0C12F0020FE1
:10C0D00057F8982C11680A6A14BF42EA800202439A
:10C0E000BB420A62EED10FE7DBF8383B0133CBF8F5
:10C0F000383BCEB100230293C2E70024204607B0AC
:10C10000BDEC028BBDE8F08F0E4991F8FC2302EBE9
:10C11000420201EBC202324492F8A9230D2AADD1AA
:10C120008023019A9377ABE704995822094842F09B
:10C130001DFA0296A4E70122CAF81C348BF8382CA9
:10C14000E3E600BF20180120ABAAAAAAC062050836
:10C1500038E90408D80D0020F8010020F012002072
:10C16000D0F82011242200232DE9F041C0F89421B9
:10C1700004460A68806804F5907522F001020A609E
:10C180000B604B608B6094F805C0C4F89C314FEA9B
:10C190008C22C4F8943184F8903102F48052C4F8AF
:10C1A0009831C4F83831C4F828214FEA0C32C4F869
:10C1B000403102F40052C4F834312379C4F82C2100
:10C1C0004FEA0C22C4F8240113F0010002F480624B
:10C1D000C4F8302102D00422C4F8342113F0020341
:10C1E00005D0D4F8342142F00802C4F834211CF000
:10C1F000010F0DD048B1D4F8442142F00202C4F836
:10C2000044214FF48032C4F84C21002B40F0FF80D1
:10C21000A84B03F1200053F8042F944200F0BD8096
:10C220009842F8D11CF0080F40F0CD80D4F894313A
:10C23000002B00F0168124232846C4F894310B68A3
:10C2400023F001030B6037F043FE012815D0D4F82A
:10C250004431002B40F01881D4F8203128465A6828
:10C2600022F490425A609A6822F02A029A601A6870
:10C2700042F001021A603EF027FB2379DA0761D50C
:10C28000D4F8FC20002A00F0D9800023D4F804114F
:10C2900004F13C06E263A3644FF480623046E2643A
:10C2A000C4E91013C4E91433C4E91833C4E91A33D8
:10C2B0004FF48033E3654FF48073A3653EF0A4FE32
:10C2C000304636F0B9FFD4F89881C4F88C61B8F1E3
:10C2D000200F656731D1E368626999B26AB3B1FA38
:10C2E00081F77F0949B394F89001012825D03046A1
:10C2F0000126C4F89C710B4684F890612226A4F8AC
:10C300007811C4F898616C4ED4F82011A6676B4E72
:10C310002431C4F87421E667694EC4F88C70C4F8FF
:10C32000886037F023F8002800F0B280102384F8EA
:10C330009071C4F89C31C4F89481E26B23795268FF
:10C34000C4F814219B0777D5D4F80021002A69D0BE
:10C350000023D4F8081104F19C06C4F89C20C4F80A
:10C36000A8304022C4F8B8303046C4E92C33C4E9C0
:10C370003033C4E932334FF48033C4F8BC304FF467
:10C380008063C4E92812C4F8AC303EF03DFE30466C
:10C3900036F052FF002867D0FEE7002C3FF442AF92
:10C3A00094F8BC31002B3FF43DAFD4F844311CF07D
:10C3B000080F43F00803C4F844314FF40043C4F8B5
:10C3C00054313FF433AFD4F89431002B55D02423AB
:10C3D0002846C4F894310B6823F001030B6037F052
:10C3E00077FD01283FF449AFD4F84431002B47D101
:10C3F000D4F8203128465A6822F490425A609A684C
:10C4000022F022029A609A6842F008022EE7D4F8DD
:10C41000443143F00103C4F844314FF40033C4F80D
:10C420004831F5E6D4F8A0311A6842F080021A606B
:10C430001A6842F040021A60BDE8F081D4F8A021E9
:10C44000116841F480711160916841F001019160BF
:10C45000116841F020011160116841F01001116074
:10C4600070E784F89031E6E6D4F89C30C4F888612F
:10C47000C4F8D4505860BDE8F08184F89031A6E744
:10C48000284637F0DFFEB3E7284637F0DBFEE3E669
:10C49000D4F8203184F890011A6842F480721A604E
:10C4A0009A6842F001029A609A6842F040029A60EB
:10C4B00043E700BF181F002045F6030875F6030880
:10C4C00079F60308F8B5EFF31185502383F312884A
:10C4D000D0F800311B6813F0010303D0EDB285F3EF
:10C4E0001188F8BDD0F894210446D0F898110A4379
:10C4F00002F02102212AF1D0D0E90901884253D06B
:10C5000043D822691846531A9BB2D4F8947100227A
:10C51000A062202F84F8A421E0D1A2695118DDD0B7
:10C52000B3FA83F67609002BD8D094F89021012A2B
:10C53000D4D00122D4F88801A4F8723184F8902173
:10C540002122C4F89C61C4F86C11A4F87031C4F8BD
:10C550009421E8B1DFF858C0D4F82021C0F83CC0DD
:10C56000DFF850C028320665C0F840C0DFF848C088
:10C57000C0F84CC036F0FAFE50B1102384F8906138
:10C58000C4F89C31C4F89471A8E7431A9BB2BCE785
:10C59000D4F8203100224021196284F890219A6851
:10C5A00042F080029A6099E7012384F8A43195E76C
:10C5B0001DF6030841F6030879F6030870B5D0F8B4
:10C5C00020410546E369990614D5606AEB6AC0B25A
:10C5D000002B74D0296B9847D5F82041236823F4A9
:10C5E00080732360A36823F00103A360A36943F071
:10C5F0000803A361E369DA0701D501232362E36934
:10C600009B0701D502232362E3695E0701D504235A
:10C610002362E369180701D508232362E3695906F9
:10C6200014D54023236295F8BD61002E31D0D5F892
:10C630000031CBB12846FFF745FF95F8A4311BB177
:10C6400095F8BD61002E4BD0D5F82041D5F80031CA
:10C6500063B1E369DB0606D56B6B13B19847D5F878
:10C6600020411023236270BDD5F82041E3691A06EA
:10C67000EFD5D5E9092393422DD0AA69D25C0133C5
:10C68000D2B2A2622A69B3FBF2F102FB1133AB62B0
:10C69000DFE795F8B2010BF0F5FA236823F0080301
:10C6A0002360012385F8BD310028C0D03246202107
:10C6B000FEF716F8D5F80031002BBBD1D4E7EB69B3
:10C6C0006A69D054EB69EA680133B3FBF2F102FB0B
:10C6D0001133EB6180E7236823F080032360B8E720
:10C6E00095F8B2010BF0CEFAD5F82041012223686B
:10C6F00023F00803236085F8BD210028A6D0324628
:10C700002021FDF7EDFF9FE72DE9F04FAF4C83B0FF
:10C7100004EB8004D4F82C4C002C6BD0D4F8AC5132
:10C720001F46DFF8C4B290466B680646A84AC4F8B4
:10C73000A0316B6BDFF8B49263612B6BA160A361D6
:10C740006B8FE3602B8FC4F8A82123610BF519636D
:10C7500023602A7809EB420393F9A80E5300019352
:10C76000C3B2012B40F28680D4F8003183B19949DD
:10C7700000209C464B68013024319C4500F0F68037
:10C780001028F7D1944B93F89411002900F05381AD
:10C79000D4F8FC00002840F0C2806B68C4F8203157
:10C7A00095F82800002840F0D28094F8B2010BF0F0
:10C7B00069FA02213A07034694F8B09184F8BD1152
:10C7C0001CD558B317F0510F4FF00B0206F10106BC
:10C7D00014BF0A211A2117F0410FC671827114BFCC
:10C7E0004023202394F8B3211943FDF779FFD4F8AF
:10C7F000FC3043B3204603B0BDE8F08F18F0020FC1
:10C800000CD058B10B223B06827106F10102C271B5
:10C8100000F1188194F8B321FDF762FF48460BF050
:10C8200031FA0028E3D018F0010FE0D00C220136D5
:10C830000221C671827194F8B121FDF751FFD4F83D
:10C84000FC30002BD6D195F82C1095F92A008909D7
:10C850003BF02CF895F92A3095F82A20002BC9DBFB
:10C8600002F01F0201215B095C4801FA02F240F864
:10C870002320BFE708234FF00C0A0BF5A86C1AFB26
:10C88000003A0023E64619460131172962D01EF806
:10C890001C3F042BF8D19EF801309342F4D15EF88E
:10C8A0000A30002BF0D08E460199C4F8003189443B
:10C8B000CEEBCE0199F9A9EE890000EB4009BEF15B
:10C8C000FF3F01EB89015944D1F84C15C4F8081118
:10C8D0003FF44DAF0021013117293FF447AF1CF859
:10C8E0001CEFBEF1050FF6D19CF801E09645F2D1A0
:10C8F0005CF80AE0BEF1000FEDD0C1EBC101C4F855
:10C90000FCE000EB4000890001EB80008344DBF891
:10C910004C15C4F80411002B7FF429AF70462D4A42
:10C920000023516801332432814261D0102BF8D1A9
:10C93000294B93F89421002A7FF42FAF2A780132F3
:10C9400083F895210C2283F894216B6826E73BF04D
:10C950002FF82AE7019B9944D4F8003199F9A91ED0
:10C960000131B7D1002B7FF402AF11E75FFA80F9F4
:10C97000194B013209F1FF31D2B201EBC10103EBD6
:10C98000810393F8B81100297FF402AF83F8B9212D
:10C990001348D3F89C2182420CBF952096200B228D
:10C9A00083F8B8213BF004F82346484695F82B203D
:10C9B0000C49FDF729FE6B68D4F8FC002833C4F855
:10C9C000183100283FF4E9AEA9E700BFF0120020BB
:10C9D00091B700089C0101200000012000E100E067
:10C9E000006002409D83000838E9040820180120F7
:10C9F000DBB2184A013B03EBC30302EB83032A7843
:10CA000093F8B8110132D2B200297FF4C6AED3F840
:10CA10009C0183F8B921104A90420CBF95209620C2
:10CA20000C2283F8B8213AF0C3FF6B6803F12402AB
:10CA3000C4F81C21B2E6013283F895210B2283F859
:10CA40009421A5E60123204684F8BD31FEF7A0FE1F
:10CA5000E4E600BF0000012000600240BFF34F8FFA
:10CA60000549064BCA6802F4E0621343CB60BFF38A
:10CA70004F8F00BFFDE700BF00ED00E00400FA05A6
:10CA800008B572B6FFF7EAFF70B582B0FEF7CEFECA
:10CA90000320FEF7BFFE01284DD0334C0025334A5A
:10CAA0000523C4F89850C4F89C50C4F8A020C4F8DA
:10CAB0009430BFF34F8FBFF36F8F4FF6FF01E268E3
:10CAC0002B4B0A402B4E13432B4AE360536FC6F89F
:10CAD000C03E36F069FE294B2949A3FB0023D4F858
:10CAE000FC209B0C42F08072C4F8FC20C6F8043491
:10CAF000D6F89432234AA1FB031323499B09C2F8B9
:10CB0000B01F5560013B1168B3F1807F41F0010116
:10CB1000116008D24FF0E022F0215361072384F81E
:10CB20002310956113614FF0E022136943F0040371
:10CB3000136102B070BD02210320FEF771FE0E4B9F
:10CB400012485A6C124942F480425A645B6C03F4F6
:10CB500080430193019A02680B68026083F308889E
:10CB60004B689847FEE700BF00ED00E01B000006A1
:10CB70000005FA05201801200038024083DE1B431F
:10CB8000D34D6210001000E055CEACC50038014016
:10CB90000000F01F800AA0F5801052281CD80F4B0F
:10CBA000184490F8F4330D2B16D8013910B40C4CFE
:10CBB00004EB831CD4F894428BB2DCF80C040CF523
:10CBC0008261CCF81834B4FBF2F2013A5DF8044B00
:10CBD000CCF8102437F07CB8704700BF38E904085F
:10CBE0002018012070B504460068830AA3F580135D
:10CBF000522B05D82E4E334493F8F4530D2D00D903
:10CC000070BDFCF7CDFB2B4BA801022203EB851571
:10CC1000D5F80C1485F84924274A8D682A40062A3D
:10CC200006D0B2F5803F03D00A6842F001020A60E4
:10CC3000034401202168214A83F849040023204845
:10CC400001E050F8332091420AD001330E2BF8D185
:10CC5000012100203AF02AFE1A4B01221A6070BD11
:10CC600006EBC303012193F9C54993F8C569204632
:10CC70003AF01CFE002CC3DB06F01F0301216409FF
:10CC8000104D01FA03F31B2E45F8243008D02E2E48
:10CC9000B6D12C203AF00AFE4FF480536B6070BD81
:10CCA00019203AF003FE4FF000732B6070BD00BFF7
:10CCB00038E90408201801200700010000000140A5
:10CCC000F8F2040800E100E003689B0AA3F5801372
:10CCD000522B56D870B53B4C234493F8F4C3BCF1A7
:10CCE0000D0F4DD84079850800294ED00CEB8C03F0
:10CCF0004FF0020E840834480CEB43030EFA04F4A0
:10CD00002B4400EB8C15D5F80C5400EB830EEE6829
:10CD1000CEF804103443CEF81420EC604FEA8C14A3
:10CD2000EFF3118E502383F312882C2303FB0CF3B3
:10CD3000C258C11832B3131D4A622C22234D02FB84
:10CD40000CF215441432024452F8041B19B1196054
:10CD500052F8043C04339542F6D100225FFA8EFE6D
:10CD60001A608EF311882C2303FB0C0C2044DCF892
:10CD70002430D0F80C2403B3D36843F00103D3600C
:10CD800070BD704724330344D7E70CEB8C030E4887
:10CD90002C460CEB43032B4400EB8C15D5F80C64AC
:10CDA0000225A540F46824EA0504F46000EB83043E
:10CDB000616062614FEA8C14B2E7D36823F001032B
:10CDC000D36070BD38E90408201801204418012000
:10CDD00003689B0AA3F58013522B00D97047144AAD
:10CDE000134493F8F4330D2BF8D810B4114C79B9DF
:10CDF0004179022204EB83105DF8044B21FA02F31F
:10CE0000D0F80C149A40CB6823EA0203CB60704739
:10CE10004179022204EB83105DF8044B21FA02F3FE
:10CE2000D0F80C1402FA03F3CA681343CB607047BE
:10CE300038E904082018012003689B0AA3F5801331
:10CE4000522B10D8084A134493F8F4230D2A0AD819
:10CE5000407902230549D84001EB82128340D2F881
:10CE60000C24DB431361704738E9040820180120C3
:10CE700001490248FBF7A0BF201801200000014033
:10CE800010B5064C06482146FBF796FF04F5C6711F
:10CE90000448BDE81040FBF78FBF00BF20180120F9
:10CEA000000001400044014002494FF08040FBF780
:10CEB00083BF00BF4C18012001490248FBF77CBF2B
:10CEC000781801200004004001490248FBF774BFB4
:10CED000A41801200008004001490248FBF76CBF7C
:10CEE000D0180120000C00402DE9F843194E356997
:10CEF000F3681D4010D04FF00047DFF85C80B5FAB2
:10CF000085F227FA02F31F2A6FEA030305EA0305F5
:10CF1000336103D0002DF2D1BDE8F883D8F8043195
:10CF2000A3B103F1FF3900231FFA89F9C8F80431CE
:10CF3000D8F80041002CEDD0236820464946984798
:10CF40006468002CF8D1002DD9D1E5E7F16A1FFA09
:10CF500081F9EDE700100040201801200149024846
:10CF6000FBF72ABF541901200004014010B5064CFC
:10CF7000064804F59A71FBF71FFF04F50471044895
:10CF8000BDE81040FBF718BF201801200004014045
:10CF9000001C004001490248FBF70EBF8019012028
:10CFA0000040014001490248FBF706BFD8190120A3
:10CFB0000048014001490248FBF7FEBE041A012067
:10CFC000001800402DE9F0414FF425728EB0002189
:10CFD000664841F0F3FA664B664E4FF080415A6C5A
:10CFE00006F68805374642F00102DFF89081A6F187
:10CFF0008C045A645A6C02F001020092009A1A6C76
:10D0000042F001021A641A6C02F001020192019AC4
:10D010001A6C42F002021A641A6C02F002020292C6
:10D02000029A1A6C42F004021A641A6C02F00402AA
:10D030000392039A1A6C42F008021A641A6C02F006
:10D0400008020492049A1A6C42F010021A641A6CD4
:10D0500002F010020592059A1A6C42F020021A643E
:10D060001A6C02F020020692069A5A6C42F00202F2
:10D070005A645A6C02F002020792079A5A6C42F400
:10D0800080325A645A6C02F480320892089A5A6CC0
:10D0900042F400325A645A6C02F400320992099A3E
:10D0A0005A6C42F480225A645A6C02F480220A922A
:10D0B0000A9A1A6C42F040021A641A6C02F040029A
:10D0C0000B920B9A1A6C42F080021A641A6C02F0EE
:10D0D00080020C920C9A1A6C42F480721A641B6CD7
:10D0E00003F480730D930D9B4246002301E054F836
:10D0F000332091420BD001330E2BF8D11C37002086
:10D100003AF056FCAF420CD057F81C1CECE71A4A18
:10D110001C3702EBC30393F8C4093AF049FCAF4251
:10D12000F2D14FF08041154F154C3A46002301E0F3
:10D1300054F8332091420BD001330E2BF8D11C361A
:10D1400000203AF035FCAE420CD056F81C1CECE73F
:10D15000094A1C3602EBC30393F8C4093AF028FCD1
:10D16000AE42F2D10EB0BDE8F08100BF2018012020
:10D170000038024084F3040838E904080000014044
:10D18000F8F20408800AA0F5801052280ED8084B47
:10D19000184490F8F4230D2A08D8064B03EB8213A9
:10D1A000D3F80C24136843F001031360704700BFE9
:10D1B00038E9040820180120F0B5A44CA5B0E368B4
:10D1C000022B00F04082A248A24AA349121A41F061
:10D1D000CDF9A248A24AA349121A41F0C7F9A3689F
:10D1E000012B00F2C48003EB43039F4A9F4D02EBE7
:10D1F000430032F8132041888388C5F80424C5F819
:10D200000814C5F80C349A4C9A4E9B4BB2FBF1F2C1
:10D210009A4901FB02F20021C6F89422D4F8882032
:10D2200042F47002C4F888201A6842F001021A60C1
:10D230009960934A1868024092481A60C0F3080740
:10D24000914A5A601A6822F480221A60D96007B1A4
:10D25000FEE78E49A0604FF6FF000A688C4B42F44F
:10D2600000720A60E26802401343E3603AF09CFEF9
:10D27000BFF34F8FBFF36F8FC4F85072BFF34F8F60
:10D28000BFF36F8F636943F400336361BFF34F8F64
:10D29000BFF36F8FC4F88470BFF34F8FD4F8803022
:10D2A00043F6E07CC3F3C90EC3F34E33580100EAE2
:10D2B0000C01734641EA8372013B5F1CC4F8602293
:10D2C000F8D1203810F1200FF1D1BFF34F8F6369EF
:10D2D00043F480336361BFF34F8FBFF36F8F6B49AC
:10D2E000654B0A6842F480720A60196C694A41F021
:10D2F00080511964196C01F08051029102991168F2
:10D3000041F4404111601268D5F8040402F440422F
:10D31000D5F80844D5F80C140192019A9A6802F0E5
:10D320000C02042A00F08F809A6802F00C02082A8E
:10D3300000F08580504A136843F480331360D6F8B8
:10D34000C47E04E0D6F8C43EDB1B642B76D8136899
:10D350009B03F7D5484A936803F00C03082B6DD064
:10D36000136823F080731360D6F8C47E0AE03F4D43
:10D37000D5F80424D5F8081445E7D6F8C43EDB1BDD
:10D38000022B5BD813689B01F7D40B06640843EAB1
:10D390008013611E43EA01433F491943364B5160F4
:10D3A000116841F080711160D6F8C41E04E0D6F80F
:10D3B000C42E521A022A41D81A689201F7D5196C64
:10D3C000344A41F0805119641B6C03F0805303937D
:10D3D000039B136843F480331360D6F8C41E06E041
:10D3E000D6F8C43E5B1AB3F57A7F00F2CB8053685F
:10D3F000DF03F5D51368274943F400331360D6F8EB
:10D40000C42E06E0D6F8C43E9B1AB3F57A7F00F22C
:10D41000B9804B689C03F5D54FF400124FF00063C0
:10D4200004A804924FF4C07221930723CDE9082386
:10D4300003230A9336F0E6F980B3FEE7FEE75B6864
:10D440005A027FF577AF0C4B1B6883E750280040EA
:10D4500000000000F03D000008E305080000002087
:10D46000F80100201D430608F0FB0408000001201D
:10D4700000ED00E0201801200038024040420F007B
:10D48000FFFFF6FE0000000810300024003C0240C0
:10D490000003FA0500700040080040206D4A136840
:10D4A00003F00F03062B0AD8136823F00F0343F091
:10D4B00007031360136803F00F03072B63D1664B58
:10D4C0009A6842F4E0529A609A6842F460429A6024
:10D4D0009A6822F0F0029A601A68900153D59A680F
:10D4E00041F2883122F0030242F002029A60D6F83B
:10D4F000C40E04E0D6F8C42E121A8A4243D89A68A1
:10D5000002F00C02082AF5D1524A136819070AD50D
:10D51000136823F00F0343F007031360136803F04D
:10D520000F03072B2FD14C4C4C4FA36823F4E0532F
:10D5300043F4A053A360A36823F4604343F400437F
:10D54000A36036F031F9A368C3F303133B4493F8A7
:10D55000CC31D840C6F894023AF026FD002304A846
:10D56000CDE91333CDE91533CDE91733CDE91933BF
:10D57000CDE91B33CDE91D33394B049336F042F925
:10D5800010B1FEE7FEE7FEE702234FF0007204A8A9
:10D59000CDE90633D823CDE9042301230B9336F0DC
:10D5A00031F900B1FEE7D4F88C3023F08073C4F871
:10D5B0008C30D4F88C3043F08073C4F88C30A3687E
:10D5C00003F00C03042B38D0082B1AD0254BC6F8D7
:10D5D0009432214AD5F80814D5F80434B3FBF1F39A
:10D5E0009168D6F89422C1F303110F4497F8CC1137
:10D5F000CA401D4901FB03F3C6F89422934220D090
:10D60000FEE76368626813F4800F636802F03F020C
:10D6100018BF1649C3F3881308BF1249B1FBF2F2D1
:10D6200002FB03F30C4A5268C2F30142013252007A
:10D63000B3FBF2F3C6F89432CBE70C4BC6F8943246
:10D64000C7E725B0F0BD00210320FEF7E9F8FFF79A
:10D6500005FA00BF003C02400038024030FA0408DE
:10D66000C0FF03000024F40040420F0000127A00C3
:10D670000548D0F8A43223B1DB6A13B100F5297054
:10D6800018470248704700BF201801200CFC04080E
:10D6900030B5114C4FF0000C234693F800E00633F0
:10D6A000864515D00CF1010CBCF1060FF5D10B4DE0
:10D6B000D5F8EC3E052B0AD00CFB034C0133C5F822
:10D6C000EC3E8CF80000ACF80210ACF8042030BD41
:10D6D000062303FB0C4CF4E7E82601202018012068
:10D6E00010B5174CD4F8F03E1B883BB9002384F8E2
:10D6F000F83E84F89C32C4F8983210BDD4F8EC2E71
:10D70000002AF3DD012A08D0D4F8F43E5988012319
:10D71000A4F8FA1E84F8FC3EE8E7D4F8F41E8A88E0
:10D7200049880132521A9A42F1D10022D4F8A43227
:10D7300004F529701B69C4F8D0229847D6E700BFCA
:10D74000201801200748D0F8A03213B190F8FC3E11
:10D750000BB100207047D0F8A43200F529705B6847
:10D76000184700BF20180120174B10B4174C93F82E
:10D770009C222244C0E9002493F89C0293F8F82EDE
:10D78000824217D893F89C02824206D300235DF8A8
:10D79000044B1846C1E90033704793F89C32002AC5
:10D7A0005DF8044BC3F180030CBF012002204A60E6
:10D7B0000B60704793F89C4200230120121B5DF818
:10D7C000044BC1E900237047201801203C1F0020B2
:10D7D0000F4B93F89C2293F8F80E93F89C229042FA
:10D7E00093F89C220FD8904204D3D3F898320020AB
:10D7F0001844704793F89C22D3F89832C2F1800203
:10D80000104418447047801AD3F89832184470476F
:10D810002018012010B51B4C84B01B4B94F89C229F
:10D820000393134494F8F81E029394F89C3299429F
:10D8300094F89C3214D899420AD294F89C320191FF
:10D84000C3F180030093C9B901223F2B0ED868B9F8
:10D8500094F89C02401AB0FA80F0400904B010BD60
:10D860000022CB1A019201220093EEE769460023C1
:10D8700002A83EF0D5FA94F8F81EE9E70B4402221C
:10D88000E3E700BF201801203C1F00202DE9F043F2
:10D89000164685B000293CD0451E284CDFF8A480F0
:10D8A0004FF000096F180DE094F89C3208468B4247
:10D8B00094F89C321DD9C3F1800318443F281BD82B
:10D8C000AF4226D094F8F80E15F8013F411C4044B1
:10D8D000C9B280F84C3C0B0684F8F81EE4D5002051
:10D8E00094F89C3284F8F89E01468B4294F89C325E
:10D8F000E1D8C01A3F28E3D994F89C328B42DFD09C
